{
  "_format": "hh-sol-artifact-1",
  "contractName": "ExchangeContract",
  "sourceName": "contracts/ExchangeContract.sol",
  "abi": [
    {
      "anonymous": false,
      "inputs": [
        {
          "indexed": false,
          "internalType": "uint256",
          "name": "exchange_id",
          "type": "uint256"
        },
        {
          "indexed": true,
          "internalType": "address",
          "name": "confirmedBy",
          "type": "address"
        }
      ],
      "name": "ExchangeConfirmed",
      "type": "event"
    },
    {
      "anonymous": false,
      "inputs": [
        {
          "indexed": false,
          "internalType": "uint256",
          "name": "exchange_id",
          "type": "uint256"
        },
        {
          "indexed": true,
          "internalType": "address",
          "name": "rejectedBy",
          "type": "address"
        }
      ],
      "name": "ExchangeRejected",
      "type": "event"
    },
    {
      "anonymous": false,
      "inputs": [
        {
          "indexed": false,
          "internalType": "uint256",
          "name": "exchange_id",
          "type": "uint256"
        },
        {
          "indexed": true,
          "internalType": "address",
          "name": "user_1_wallet",
          "type": "address"
        },
        {
          "indexed": true,
          "internalType": "address",
          "name": "user_2_wallet",
          "type": "address"
        }
      ],
      "name": "ExchangeRequested",
      "type": "event"
    },
    {
      "anonymous": false,
      "inputs": [
        {
          "indexed": false,
          "internalType": "uint256",
          "name": "exchange_id",
          "type": "uint256"
        },
        {
          "indexed": false,
          "internalType": "string",
          "name": "transaction_hash",
          "type": "string"
        }
      ],
      "name": "TransactionHashUpdated",
      "type": "event"
    },
    {
      "inputs": [
        {
          "internalType": "uint256",
          "name": "_exchange_id",
          "type": "uint256"
        }
      ],
      "name": "confirmExchange",
      "outputs": [],
      "stateMutability": "nonpayable",
      "type": "function"
    },
    {
      "inputs": [],
      "name": "exchangeCounter",
      "outputs": [
        {
          "internalType": "uint256",
          "name": "",
          "type": "uint256"
        }
      ],
      "stateMutability": "view",
      "type": "function"
    },
    {
      "inputs": [
        {
          "internalType": "uint256",
          "name": "",
          "type": "uint256"
        }
      ],
      "name": "exchanges",
      "outputs": [
        {
          "internalType": "uint256",
          "name": "exchange_id",
          "type": "uint256"
        },
        {
          "internalType": "address",
          "name": "user_1_wallet",
          "type": "address"
        },
        {
          "internalType": "address",
          "name": "user_2_wallet",
          "type": "address"
        },
        {
          "internalType": "string",
          "name": "item_1_id",
          "type": "string"
        },
        {
          "internalType": "string",
          "name": "item_2_id",
          "type": "string"
        },
        {
          "internalType": "uint256",
          "name": "timestamp",
          "type": "uint256"
        },
        {
          "internalType": "string",
          "name": "transaction_hash",
          "type": "string"
        },
        {
          "internalType": "uint8",
          "name": "status",
          "type": "uint8"
        }
      ],
      "stateMutability": "view",
      "type": "function"
    },
    {
      "inputs": [
        {
          "internalType": "address",
          "name": "wallet",
          "type": "address"
        }
      ],
      "name": "getExchangeHistory",
      "outputs": [
        {
          "components": [
            {
              "internalType": "uint256",
              "name": "exchange_id",
              "type": "uint256"
            },
            {
              "internalType": "address",
              "name": "user_1_wallet",
              "type": "address"
            },
            {
              "internalType": "address",
              "name": "user_2_wallet",
              "type": "address"
            },
            {
              "internalType": "string",
              "name": "item_1_id",
              "type": "string"
            },
            {
              "internalType": "string",
              "name": "item_2_id",
              "type": "string"
            },
            {
              "internalType": "uint256",
              "name": "timestamp",
              "type": "uint256"
            },
            {
              "internalType": "string",
              "name": "transaction_hash",
              "type": "string"
            },
            {
              "internalType": "uint8",
              "name": "status",
              "type": "uint8"
            }
          ],
          "internalType": "struct ExchangeContract.ExchangeRequest[]",
          "name": "",
          "type": "tuple[]"
        }
      ],
      "stateMutability": "view",
      "type": "function"
    },
    {
      "inputs": [
        {
          "internalType": "address",
          "name": "wallet",
          "type": "address"
        }
      ],
      "name": "getPendingExchanges",
      "outputs": [
        {
          "components": [
            {
              "internalType": "uint256",
              "name": "exchange_id",
              "type": "uint256"
            },
            {
              "internalType": "address",
              "name": "user_1_wallet",
              "type": "address"
            },
            {
              "internalType": "address",
              "name": "user_2_wallet",
              "type": "address"
            },
            {
              "internalType": "string",
              "name": "item_1_id",
              "type": "string"
            },
            {
              "internalType": "string",
              "name": "item_2_id",
              "type": "string"
            },
            {
              "internalType": "uint256",
              "name": "timestamp",
              "type": "uint256"
            },
            {
              "internalType": "string",
              "name": "transaction_hash",
              "type": "string"
            },
            {
              "internalType": "uint8",
              "name": "status",
              "type": "uint8"
            }
          ],
          "internalType": "struct ExchangeContract.ExchangeRequest[]",
          "name": "",
          "type": "tuple[]"
        }
      ],
      "stateMutability": "view",
      "type": "function"
    },
    {
      "inputs": [
        {
          "internalType": "uint256",
          "name": "_exchange_id",
          "type": "uint256"
        }
      ],
      "name": "rejectExchange",
      "outputs": [],
      "stateMutability": "nonpayable",
      "type": "function"
    },
    {
      "inputs": [
        {
          "internalType": "address",
          "name": "_user_2_wallet",
          "type": "address"
        },
        {
          "internalType": "string",
          "name": "_item_1_id",
          "type": "string"
        },
        {
          "internalType": "string",
          "name": "_item_2_id",
          "type": "string"
        }
      ],
      "name": "requestExchange",
      "outputs": [],
      "stateMutability": "nonpayable",
      "type": "function"
    },
    {
      "inputs": [
        {
          "internalType": "uint256",
          "name": "_exchange_id",
          "type": "uint256"
        },
        {
          "internalType": "string",
          "name": "_txHash",
          "type": "string"
        }
      ],
      "name": "updateTransactionHash",
      "outputs": [],
      "stateMutability": "nonpayable",
      "type": "function"
    }
  ],
  "bytecode": "0x60806040526001805534801561001457600080fd5b5061253a806100246000396000f3fe608060405234801561001057600080fd5b50600436106100885760003560e01c80638ca305a01161005b5780638ca305a01461012e57806391cbfb811461014a578063e9e500691461017a578063ef2b786d1461019657610088565b80632839fc291461008d5780633b14dfea146100c45780633d61decb146100e057806349d4cfac14610110575b600080fd5b6100a760048036038101906100a29190611785565b6101b2565b6040516100bb9897969594939291906118ae565b60405180910390f35b6100de60048036038101906100d99190611a76565b6103df565b005b6100fa60048036038101906100f59190611afe565b61053d565b6040516101079190611d22565b60405180910390f35b610118610ae5565b6040516101259190611d44565b60405180910390f35b61014860048036038101906101439190611785565b610aeb565b005b610164600480360381019061015f9190611afe565b610cca565b6040516101719190611d22565b60405180910390f35b610194600480360381019061018f9190611d5f565b611210565b005b6101b060048036038101906101ab9190611785565b6114e8565b005b60006020528060005260406000206000915090508060000154908060010160009054906101000a900473ffffffffffffffffffffffffffffffffffffffff16908060020160009054906101000a900473ffffffffffffffffffffffffffffffffffffffff169080600301805461022790611e19565b80601f016020809104026020016040519081016040528092919081815260200182805461025390611e19565b80156102a05780601f10610275576101008083540402835291602001916102a0565b820191906000526020600020905b81548152906001019060200180831161028357829003601f168201915b5050505050908060040180546102b590611e19565b80601f01602080910402602001604051908101604052809291908181526020018280546102e190611e19565b801561032e5780601f106103035761010080835404028352916020019161032e565b820191906000526020600020905b81548152906001019060200180831161031157829003601f168201915b50505050509080600501549080600601805461034990611e19565b80601f016020809104026020016040519081016040528092919081815260200182805461037590611e19565b80156103c25780601f10610397576101008083540402835291602001916103c2565b820191906000526020600020905b8154815290600101906020018083116103a557829003601f168201915b5050505050908060070160009054906101000a900460ff16905088565b816000811180156103f1575060015481105b610430576040517f08c379a000000000000000000000000000000000000000000000000000000000815260040161042790611e96565b60405180910390fd5b6000825111610474576040517f08c379a000000000000000000000000000000000000000000000000000000000815260040161046b90611f02565b60405180910390fd5b600080600085815260200190815260200160002060070160009054906101000a900460ff1660ff16036104dc576040517f08c379a00000000000000000000000000000000000000000000000000000000081526004016104d390611f94565b60405180910390fd5b8160008085815260200190815260200160002060060190816104fe9190612160565b507fcdbb24b2fc0645c916160f8f57eab66f7a3001a7f0e08950df7481a3624e671c8383604051610530929190612232565b60405180910390a1505050565b6060600080600190505b600154811015610678578373ffffffffffffffffffffffffffffffffffffffff1660008083815260200190815260200160002060010160009054906101000a900473ffffffffffffffffffffffffffffffffffffffff1673ffffffffffffffffffffffffffffffffffffffff16148061062057508373ffffffffffffffffffffffffffffffffffffffff1660008083815260200190815260200160002060020160009054906101000a900473ffffffffffffffffffffffffffffffffffffffff1673ffffffffffffffffffffffffffffffffffffffff16145b80156106515750600080600083815260200190815260200160002060070160009054906101000a900460ff1660ff16145b1561066557818061066190612291565b9250505b808061067090612291565b915050610547565b5060008167ffffffffffffffff8111156106955761069461194b565b5b6040519080825280602002602001820160405280156106ce57816020015b6106bb6116c7565b8152602001906001900390816106b35790505b509050600080600190505b600154811015610ad9578573ffffffffffffffffffffffffffffffffffffffff1660008083815260200190815260200160002060010160009054906101000a900473ffffffffffffffffffffffffffffffffffffffff1673ffffffffffffffffffffffffffffffffffffffff1614806107b257508573ffffffffffffffffffffffffffffffffffffffff1660008083815260200190815260200160002060020160009054906101000a900473ffffffffffffffffffffffffffffffffffffffff1673ffffffffffffffffffffffffffffffffffffffff16145b80156107e35750600080600083815260200190815260200160002060070160009054906101000a900460ff1660ff16145b15610ac65760008082815260200190815260200160002060405180610100016040529081600082015481526020016001820160009054906101000a900473ffffffffffffffffffffffffffffffffffffffff1673ffffffffffffffffffffffffffffffffffffffff1673ffffffffffffffffffffffffffffffffffffffff1681526020016002820160009054906101000a900473ffffffffffffffffffffffffffffffffffffffff1673ffffffffffffffffffffffffffffffffffffffff1673ffffffffffffffffffffffffffffffffffffffff1681526020016003820180546108cc90611e19565b80601f01602080910402602001604051908101604052809291908181526020018280546108f890611e19565b80156109455780601f1061091a57610100808354040283529160200191610945565b820191906000526020600020905b81548152906001019060200180831161092857829003601f168201915b5050505050815260200160048201805461095e90611e19565b80601f016020809104026020016040519081016040528092919081815260200182805461098a90611e19565b80156109d75780601f106109ac576101008083540402835291602001916109d7565b820191906000526020600020905b8154815290600101906020018083116109ba57829003601f168201915b50505050508152602001600582015481526020016006820180546109fa90611e19565b80601f0160208091040260200160405190810160405280929190818152602001828054610a2690611e19565b8015610a735780601f10610a4857610100808354040283529160200191610a73565b820191906000526020600020905b815481529060010190602001808311610a5657829003601f168201915b505050505081526020016007820160009054906101000a900460ff1660ff1660ff1681525050838381518110610aac57610aab6122d9565b5b60200260200101819052508180610ac290612291565b9250505b8080610ad190612291565b9150506106d9565b50819350505050919050565b60015481565b80600081118015610afd575060015481105b610b3c576040517f08c379a0000000000000000000000000000000000000000000000000000000008152600401610b3390611e96565b60405180910390fd5b8160008082815260200190815260200160002060020160009054906101000a900473ffffffffffffffffffffffffffffffffffffffff1673ffffffffffffffffffffffffffffffffffffffff163373ffffffffffffffffffffffffffffffffffffffff1614610be0576040517f08c379a0000000000000000000000000000000000000000000000000000000008152600401610bd79061237a565b60405180910390fd5b600080600085815260200190815260200160002060070160009054906101000a900460ff1660ff1614610c48576040517f08c379a0000000000000000000000000000000000000000000000000000000008152600401610c3f906123e6565b60405180910390fd5b600260008085815260200190815260200160002060070160006101000a81548160ff021916908360ff1602179055503373ffffffffffffffffffffffffffffffffffffffff167f2bd071b29250b574ac02f5b100db32ce1931388f81d387da49b295dab1ce4a1484604051610cbd9190611d44565b60405180910390a2505050565b6060600080600190505b600154811015610dd4578373ffffffffffffffffffffffffffffffffffffffff1660008083815260200190815260200160002060010160009054906101000a900473ffffffffffffffffffffffffffffffffffffffff1673ffffffffffffffffffffffffffffffffffffffff161480610dad57508373ffffffffffffffffffffffffffffffffffffffff1660008083815260200190815260200160002060020160009054906101000a900473ffffffffffffffffffffffffffffffffffffffff1673ffffffffffffffffffffffffffffffffffffffff16145b15610dc1578180610dbd90612291565b9250505b8080610dcc90612291565b915050610cd4565b5060008167ffffffffffffffff811115610df157610df061194b565b5b604051908082528060200260200182016040528015610e2a57816020015b610e176116c7565b815260200190600190039081610e0f5790505b509050600080600190505b600154811015611204578573ffffffffffffffffffffffffffffffffffffffff1660008083815260200190815260200160002060010160009054906101000a900473ffffffffffffffffffffffffffffffffffffffff1673ffffffffffffffffffffffffffffffffffffffff161480610f0e57508573ffffffffffffffffffffffffffffffffffffffff1660008083815260200190815260200160002060020160009054906101000a900473ffffffffffffffffffffffffffffffffffffffff1673ffffffffffffffffffffffffffffffffffffffff16145b156111f15760008082815260200190815260200160002060405180610100016040529081600082015481526020016001820160009054906101000a900473ffffffffffffffffffffffffffffffffffffffff1673ffffffffffffffffffffffffffffffffffffffff1673ffffffffffffffffffffffffffffffffffffffff1681526020016002820160009054906101000a900473ffffffffffffffffffffffffffffffffffffffff1673ffffffffffffffffffffffffffffffffffffffff1673ffffffffffffffffffffffffffffffffffffffff168152602001600382018054610ff790611e19565b80601f016020809104026020016040519081016040528092919081815260200182805461102390611e19565b80156110705780601f1061104557610100808354040283529160200191611070565b820191906000526020600020905b81548152906001019060200180831161105357829003601f168201915b5050505050815260200160048201805461108990611e19565b80601f01602080910402602001604051908101604052809291908181526020018280546110b590611e19565b80156111025780601f106110d757610100808354040283529160200191611102565b820191906000526020600020905b8154815290600101906020018083116110e557829003601f168201915b505050505081526020016005820154815260200160068201805461112590611e19565b80601f016020809104026020016040519081016040528092919081815260200182805461115190611e19565b801561119e5780601f106111735761010080835404028352916020019161119e565b820191906000526020600020905b81548152906001019060200180831161118157829003601f168201915b505050505081526020016007820160009054906101000a900460ff1660ff1660ff16815250508383815181106111d7576111d66122d9565b5b602002602001018190525081806111ed90612291565b9250505b80806111fc90612291565b915050610e35565b50819350505050919050565b3373ffffffffffffffffffffffffffffffffffffffff168373ffffffffffffffffffffffffffffffffffffffff160361127e576040517f08c379a000000000000000000000000000000000000000000000000000000000815260040161127590612478565b60405180910390fd5b60008251118015611290575060008151115b6112cf576040517f08c379a00000000000000000000000000000000000000000000000000000000081526004016112c6906124e4565b60405180910390fd5b6000600160008154809291906112e490612291565b9190505590506040518061010001604052808281526020013373ffffffffffffffffffffffffffffffffffffffff1681526020018573ffffffffffffffffffffffffffffffffffffffff168152602001848152602001838152602001428152602001604051806020016040528060008152508152602001600060ff168152506000808381526020019081526020016000206000820151816000015560208201518160010160006101000a81548173ffffffffffffffffffffffffffffffffffffffff021916908373ffffffffffffffffffffffffffffffffffffffff16021790555060408201518160020160006101000a81548173ffffffffffffffffffffffffffffffffffffffff021916908373ffffffffffffffffffffffffffffffffffffffff16021790555060608201518160030190816114229190612160565b5060808201518160040190816114389190612160565b5060a0820151816005015560c08201518160060190816114589190612160565b5060e08201518160070160006101000a81548160ff021916908360ff1602179055509050508373ffffffffffffffffffffffffffffffffffffffff163373ffffffffffffffffffffffffffffffffffffffff167f9ab41c67851afecdc3bc6076f505a246b7d9e4d1350d2b35a8fbb7ab65039454836040516114da9190611d44565b60405180910390a350505050565b806000811180156114fa575060015481105b611539576040517f08c379a000000000000000000000000000000000000000000000000000000000815260040161153090611e96565b60405180910390fd5b8160008082815260200190815260200160002060020160009054906101000a900473ffffffffffffffffffffffffffffffffffffffff1673ffffffffffffffffffffffffffffffffffffffff163373ffffffffffffffffffffffffffffffffffffffff16146115dd576040517f08c379a00000000000000000000000000000000000000000000000000000000081526004016115d49061237a565b60405180910390fd5b600080600085815260200190815260200160002060070160009054906101000a900460ff1660ff1614611645576040517f08c379a000000000000000000000000000000000000000000000000000000000815260040161163c906123e6565b60405180910390fd5b600160008085815260200190815260200160002060070160006101000a81548160ff021916908360ff1602179055503373ffffffffffffffffffffffffffffffffffffffff167fe24d96506e557bebbc5ef235955580f24280c7e7a013ef2d7c733519a6f17963846040516116ba9190611d44565b60405180910390a2505050565b60405180610100016040528060008152602001600073ffffffffffffffffffffffffffffffffffffffff168152602001600073ffffffffffffffffffffffffffffffffffffffff16815260200160608152602001606081526020016000815260200160608152602001600060ff1681525090565b6000604051905090565b600080fd5b600080fd5b6000819050919050565b6117628161174f565b811461176d57600080fd5b50565b60008135905061177f81611759565b92915050565b60006020828403121561179b5761179a611745565b5b60006117a984828501611770565b91505092915050565b6117bb8161174f565b82525050565b600073ffffffffffffffffffffffffffffffffffffffff82169050919050565b60006117ec826117c1565b9050919050565b6117fc816117e1565b82525050565b600081519050919050565b600082825260208201905092915050565b60005b8381101561183c578082015181840152602081019050611821565b60008484015250505050565b6000601f19601f8301169050919050565b600061186482611802565b61186e818561180d565b935061187e81856020860161181e565b61188781611848565b840191505092915050565b600060ff82169050919050565b6118a881611892565b82525050565b6000610100820190506118c4600083018b6117b2565b6118d1602083018a6117f3565b6118de60408301896117f3565b81810360608301526118f08188611859565b905081810360808301526119048187611859565b905061191360a08301866117b2565b81810360c08301526119258185611859565b905061193460e083018461189f565b9998505050505050505050565b600080fd5b600080fd5b7f4e487b7100000000000000000000000000000000000000000000000000000000600052604160045260246000fd5b61198382611848565b810181811067ffffffffffffffff821117156119a2576119a161194b565b5b80604052505050565b60006119b561173b565b90506119c1828261197a565b919050565b600067ffffffffffffffff8211156119e1576119e061194b565b5b6119ea82611848565b9050602081019050919050565b82818337600083830152505050565b6000611a19611a14846119c6565b6119ab565b905082815260208101848484011115611a3557611a34611946565b5b611a408482856119f7565b509392505050565b600082601f830112611a5d57611a5c611941565b5b8135611a6d848260208601611a06565b91505092915050565b60008060408385031215611a8d57611a8c611745565b5b6000611a9b85828601611770565b925050602083013567ffffffffffffffff811115611abc57611abb61174a565b5b611ac885828601611a48565b9150509250929050565b611adb816117e1565b8114611ae657600080fd5b50565b600081359050611af881611ad2565b92915050565b600060208284031215611b1457611b13611745565b5b6000611b2284828501611ae9565b91505092915050565b600081519050919050565b600082825260208201905092915050565b6000819050602082019050919050565b611b608161174f565b82525050565b611b6f816117e1565b82525050565b600082825260208201905092915050565b6000611b9182611802565b611b9b8185611b75565b9350611bab81856020860161181e565b611bb481611848565b840191505092915050565b611bc881611892565b82525050565b600061010083016000830151611be76000860182611b57565b506020830151611bfa6020860182611b66565b506040830151611c0d6040860182611b66565b5060608301518482036060860152611c258282611b86565b91505060808301518482036080860152611c3f8282611b86565b91505060a0830151611c5460a0860182611b57565b5060c083015184820360c0860152611c6c8282611b86565b91505060e0830151611c8160e0860182611bbf565b508091505092915050565b6000611c988383611bce565b905092915050565b6000602082019050919050565b6000611cb882611b2b565b611cc28185611b36565b935083602082028501611cd485611b47565b8060005b85811015611d105784840389528151611cf18582611c8c565b9450611cfc83611ca0565b925060208a01995050600181019050611cd8565b50829750879550505050505092915050565b60006020820190508181036000830152611d3c8184611cad565b905092915050565b6000602082019050611d5960008301846117b2565b92915050565b600080600060608486031215611d7857611d77611745565b5b6000611d8686828701611ae9565b935050602084013567ffffffffffffffff811115611da757611da661174a565b5b611db386828701611a48565b925050604084013567ffffffffffffffff811115611dd457611dd361174a565b5b611de086828701611a48565b9150509250925092565b7f4e487b7100000000000000000000000000000000000000000000000000000000600052602260045260246000fd5b60006002820490506001821680611e3157607f821691505b602082108103611e4457611e43611dea565b5b50919050565b7f496e76616c69642065786368616e676520494400000000000000000000000000600082015250565b6000611e8060138361180d565b9150611e8b82611e4a565b602082019050919050565b60006020820190508181036000830152611eaf81611e73565b9050919050565b7f5472616e73616374696f6e206861736820726571756972656400000000000000600082015250565b6000611eec60198361180d565b9150611ef782611eb6565b602082019050919050565b60006020820190508181036000830152611f1b81611edf565b9050919050565b7f45786368616e6765206d75737420626520636f6e6669726d6564206f7220726560008201527f6a65637465642066697273740000000000000000000000000000000000000000602082015250565b6000611f7e602c8361180d565b9150611f8982611f22565b604082019050919050565b60006020820190508181036000830152611fad81611f71565b9050919050565b60008190508160005260206000209050919050565b60006020601f8301049050919050565b600082821b905092915050565b6000600883026120167fffffffffffffffffffffffffffffffffffffffffffffffffffffffffffffffff82611fd9565b6120208683611fd9565b95508019841693508086168417925050509392505050565b6000819050919050565b600061205d6120586120538461174f565b612038565b61174f565b9050919050565b6000819050919050565b61207783612042565b61208b61208382612064565b848454611fe6565b825550505050565b600090565b6120a0612093565b6120ab81848461206e565b505050565b5b818110156120cf576120c4600082612098565b6001810190506120b1565b5050565b601f821115612114576120e581611fb4565b6120ee84611fc9565b810160208510156120fd578190505b61211161210985611fc9565b8301826120b0565b50505b505050565b600082821c905092915050565b600061213760001984600802612119565b1980831691505092915050565b60006121508383612126565b9150826002028217905092915050565b61216982611802565b67ffffffffffffffff8111156121825761218161194b565b5b61218c8254611e19565b6121978282856120d3565b600060209050601f8311600181146121ca57600084156121b8578287015190505b6121c28582612144565b86555061222a565b601f1984166121d886611fb4565b60005b82811015612200578489015182556001820191506020850194506020810190506121db565b8683101561221d5784890151612219601f891682612126565b8355505b6001600288020188555050505b505050505050565b600060408201905061224760008301856117b2565b81810360208301526122598184611859565b90509392505050565b7f4e487b7100000000000000000000000000000000000000000000000000000000600052601160045260246000fd5b600061229c8261174f565b91507fffffffffffffffffffffffffffffffffffffffffffffffffffffffffffffffff82036122ce576122cd612262565b5b600182019050919050565b7f4e487b7100000000000000000000000000000000000000000000000000000000600052603260045260246000fd5b7f4f6e6c7920726563697069656e742063616e2070726f6365737320746869732060008201527f65786368616e6765000000000000000000000000000000000000000000000000602082015250565b600061236460288361180d565b915061236f82612308565b604082019050919050565b6000602082019050818103600083015261239381612357565b9050919050565b7f45786368616e676520697320616c72656164792070726f636573736564000000600082015250565b60006123d0601d8361180d565b91506123db8261239a565b602082019050919050565b600060208201905081810360008301526123ff816123c3565b9050919050565b7f596f752063616e6e6f742065786368616e6765207769746820796f757273656c60008201527f6600000000000000000000000000000000000000000000000000000000000000602082015250565b600061246260218361180d565b915061246d82612406565b604082019050919050565b6000602082019050818103600083015261249181612455565b9050919050565b7f496e76616c6964206974656d2049447300000000000000000000000000000000600082015250565b60006124ce60108361180d565b91506124d982612498565b602082019050919050565b600060208201905081810360008301526124fd816124c1565b905091905056fea2646970667358221220f5f3f8bc49412ab5244670301e02d043b47394a7e910abb9e0f05f8454c65b0c64736f6c63430008140033",
  "linkReferences": {},
  "deployedLinkReferences": {}
}