{
  "_format": "hh-sol-artifact-1",
  "contractName": "ExchangeContract",
  "sourceName": "contracts/ExchangeContract.sol",
  "abi": [
    {
      "anonymous": false,
      "inputs": [
        {
          "indexed": false,
          "internalType": "uint256",
          "name": "exchange_id",
          "type": "uint256"
        },
        {
          "indexed": true,
          "internalType": "address",
          "name": "confirmedBy",
          "type": "address"
        }
      ],
      "name": "ExchangeConfirmed",
      "type": "event"
    },
    {
      "anonymous": false,
      "inputs": [
        {
          "indexed": false,
          "internalType": "uint256",
          "name": "exchange_id",
          "type": "uint256"
        },
        {
          "indexed": true,
          "internalType": "address",
          "name": "rejectedBy",
          "type": "address"
        }
      ],
      "name": "ExchangeRejected",
      "type": "event"
    },
    {
      "anonymous": false,
      "inputs": [
        {
          "indexed": false,
          "internalType": "uint256",
          "name": "exchange_id",
          "type": "uint256"
        },
        {
          "indexed": true,
          "internalType": "address",
          "name": "user_1_wallet",
          "type": "address"
        },
        {
          "indexed": true,
          "internalType": "address",
          "name": "user_2_wallet",
          "type": "address"
        }
      ],
      "name": "ExchangeRequested",
      "type": "event"
    },
    {
      "anonymous": false,
      "inputs": [
        {
          "indexed": false,
          "internalType": "uint256",
          "name": "exchange_id",
          "type": "uint256"
        },
        {
          "indexed": false,
          "internalType": "string",
          "name": "transaction_hash",
          "type": "string"
        }
      ],
      "name": "TransactionHashUpdated",
      "type": "event"
    },
    {
      "inputs": [
        {
          "internalType": "uint256",
          "name": "_exchange_id",
          "type": "uint256"
        }
      ],
      "name": "confirmExchange",
      "outputs": [],
      "stateMutability": "nonpayable",
      "type": "function"
    },
    {
      "inputs": [],
      "name": "exchangeCounter",
      "outputs": [
        {
          "internalType": "uint256",
          "name": "",
          "type": "uint256"
        }
      ],
      "stateMutability": "view",
      "type": "function"
    },
    {
      "inputs": [
        {
          "internalType": "uint256",
          "name": "",
          "type": "uint256"
        }
      ],
      "name": "exchanges",
      "outputs": [
        {
          "internalType": "uint256",
          "name": "exchange_id",
          "type": "uint256"
        },
        {
          "internalType": "address",
          "name": "user_1_wallet",
          "type": "address"
        },
        {
          "internalType": "address",
          "name": "user_2_wallet",
          "type": "address"
        },
        {
          "internalType": "string",
          "name": "item_1_id",
          "type": "string"
        },
        {
          "internalType": "string",
          "name": "item_2_id",
          "type": "string"
        },
        {
          "internalType": "uint256",
          "name": "timestamp",
          "type": "uint256"
        },
        {
          "internalType": "string",
          "name": "transaction_hash",
          "type": "string"
        },
        {
          "internalType": "uint8",
          "name": "status",
          "type": "uint8"
        }
      ],
      "stateMutability": "view",
      "type": "function"
    },
    {
      "inputs": [],
      "name": "getAllExchanges",
      "outputs": [
        {
          "components": [
            {
              "internalType": "uint256",
              "name": "exchange_id",
              "type": "uint256"
            },
            {
              "internalType": "address",
              "name": "user_1_wallet",
              "type": "address"
            },
            {
              "internalType": "address",
              "name": "user_2_wallet",
              "type": "address"
            },
            {
              "internalType": "string",
              "name": "item_1_id",
              "type": "string"
            },
            {
              "internalType": "string",
              "name": "item_2_id",
              "type": "string"
            },
            {
              "internalType": "uint256",
              "name": "timestamp",
              "type": "uint256"
            },
            {
              "internalType": "string",
              "name": "transaction_hash",
              "type": "string"
            },
            {
              "internalType": "uint8",
              "name": "status",
              "type": "uint8"
            }
          ],
          "internalType": "struct ExchangeContract.ExchangeRequest[]",
          "name": "",
          "type": "tuple[]"
        }
      ],
      "stateMutability": "view",
      "type": "function"
    },
    {
      "inputs": [
        {
          "internalType": "address",
          "name": "wallet",
          "type": "address"
        }
      ],
      "name": "getExchangeHistory",
      "outputs": [
        {
          "components": [
            {
              "internalType": "uint256",
              "name": "exchange_id",
              "type": "uint256"
            },
            {
              "internalType": "address",
              "name": "user_1_wallet",
              "type": "address"
            },
            {
              "internalType": "address",
              "name": "user_2_wallet",
              "type": "address"
            },
            {
              "internalType": "string",
              "name": "item_1_id",
              "type": "string"
            },
            {
              "internalType": "string",
              "name": "item_2_id",
              "type": "string"
            },
            {
              "internalType": "uint256",
              "name": "timestamp",
              "type": "uint256"
            },
            {
              "internalType": "string",
              "name": "transaction_hash",
              "type": "string"
            },
            {
              "internalType": "uint8",
              "name": "status",
              "type": "uint8"
            }
          ],
          "internalType": "struct ExchangeContract.ExchangeRequest[]",
          "name": "",
          "type": "tuple[]"
        }
      ],
      "stateMutability": "view",
      "type": "function"
    },
    {
      "inputs": [
        {
          "internalType": "address",
          "name": "wallet",
          "type": "address"
        }
      ],
      "name": "getPendingExchanges",
      "outputs": [
        {
          "components": [
            {
              "internalType": "uint256",
              "name": "exchange_id",
              "type": "uint256"
            },
            {
              "internalType": "address",
              "name": "user_1_wallet",
              "type": "address"
            },
            {
              "internalType": "address",
              "name": "user_2_wallet",
              "type": "address"
            },
            {
              "internalType": "string",
              "name": "item_1_id",
              "type": "string"
            },
            {
              "internalType": "string",
              "name": "item_2_id",
              "type": "string"
            },
            {
              "internalType": "uint256",
              "name": "timestamp",
              "type": "uint256"
            },
            {
              "internalType": "string",
              "name": "transaction_hash",
              "type": "string"
            },
            {
              "internalType": "uint8",
              "name": "status",
              "type": "uint8"
            }
          ],
          "internalType": "struct ExchangeContract.ExchangeRequest[]",
          "name": "",
          "type": "tuple[]"
        }
      ],
      "stateMutability": "view",
      "type": "function"
    },
    {
      "inputs": [
        {
          "internalType": "uint256",
          "name": "_exchange_id",
          "type": "uint256"
        }
      ],
      "name": "rejectExchange",
      "outputs": [],
      "stateMutability": "nonpayable",
      "type": "function"
    },
    {
      "inputs": [
        {
          "internalType": "address",
          "name": "_user_2_wallet",
          "type": "address"
        },
        {
          "internalType": "string",
          "name": "_item_1_id",
          "type": "string"
        },
        {
          "internalType": "string",
          "name": "_item_2_id",
          "type": "string"
        }
      ],
      "name": "requestExchange",
      "outputs": [],
      "stateMutability": "nonpayable",
      "type": "function"
    },
    {
      "inputs": [
        {
          "internalType": "uint256",
          "name": "_exchange_id",
          "type": "uint256"
        },
        {
          "internalType": "string",
          "name": "_txHash",
          "type": "string"
        }
      ],
      "name": "updateTransactionHash",
      "outputs": [],
      "stateMutability": "nonpayable",
      "type": "function"
    }
  ],
  "bytecode": "0x60806040526001805534801561001457600080fd5b50612909806100246000396000f3fe608060405234801561001057600080fd5b50600436106100935760003560e01c806349d4cfac1161006657806349d4cfac146101395780638ca305a01461015757806391cbfb8114610173578063e9e50069146101a3578063ef2b786d146101bf57610093565b80632839fc291461009857806337c03fb6146100cf5780633b14dfea146100ed5780633d61decb14610109575b600080fd5b6100b260048036038101906100ad9190611b20565b6101db565b6040516100c6989796959493929190611c49565b60405180910390f35b6100d7610408565b6040516100e49190611ed3565b60405180910390f35b6101076004803603810190610102919061202a565b61077a565b005b610123600480360381019061011e91906120b2565b6108d8565b6040516101309190611ed3565b60405180910390f35b610141610e80565b60405161014e91906120df565b60405180910390f35b610171600480360381019061016c9190611b20565b610e86565b005b61018d600480360381019061018891906120b2565b611065565b60405161019a9190611ed3565b60405180910390f35b6101bd60048036038101906101b891906120fa565b6115ab565b005b6101d960048036038101906101d49190611b20565b611883565b005b60006020528060005260406000206000915090508060000154908060010160009054906101000a900473ffffffffffffffffffffffffffffffffffffffff16908060020160009054906101000a900473ffffffffffffffffffffffffffffffffffffffff1690806003018054610250906121b4565b80601f016020809104026020016040519081016040528092919081815260200182805461027c906121b4565b80156102c95780601f1061029e576101008083540402835291602001916102c9565b820191906000526020600020905b8154815290600101906020018083116102ac57829003601f168201915b5050505050908060040180546102de906121b4565b80601f016020809104026020016040519081016040528092919081815260200182805461030a906121b4565b80156103575780601f1061032c57610100808354040283529160200191610357565b820191906000526020600020905b81548152906001019060200180831161033a57829003601f168201915b505050505090806005015490806006018054610372906121b4565b80601f016020809104026020016040519081016040528092919081815260200182805461039e906121b4565b80156103eb5780601f106103c0576101008083540402835291602001916103eb565b820191906000526020600020905b8154815290600101906020018083116103ce57829003601f168201915b5050505050908060070160009054906101000a900460ff16905088565b606060006001805461041a9190612214565b67ffffffffffffffff81111561043357610432611eff565b5b60405190808252806020026020018201604052801561046c57816020015b610459611a62565b8152602001906001900390816104515790505b509050600080600190505b6001548110156107715760008082815260200190815260200160002060405180610100016040529081600082015481526020016001820160009054906101000a900473ffffffffffffffffffffffffffffffffffffffff1673ffffffffffffffffffffffffffffffffffffffff1673ffffffffffffffffffffffffffffffffffffffff1681526020016002820160009054906101000a900473ffffffffffffffffffffffffffffffffffffffff1673ffffffffffffffffffffffffffffffffffffffff1673ffffffffffffffffffffffffffffffffffffffff168152602001600382018054610565906121b4565b80601f0160208091040260200160405190810160405280929190818152602001828054610591906121b4565b80156105de5780601f106105b3576101008083540402835291602001916105de565b820191906000526020600020905b8154815290600101906020018083116105c157829003601f168201915b505050505081526020016004820180546105f7906121b4565b80601f0160208091040260200160405190810160405280929190818152602001828054610623906121b4565b80156106705780601f1061064557610100808354040283529160200191610670565b820191906000526020600020905b81548152906001019060200180831161065357829003601f168201915b5050505050815260200160058201548152602001600682018054610693906121b4565b80601f01602080910402602001604051908101604052809291908181526020018280546106bf906121b4565b801561070c5780601f106106e15761010080835404028352916020019161070c565b820191906000526020600020905b8154815290600101906020018083116106ef57829003601f168201915b505050505081526020016007820160009054906101000a900460ff1660ff1660ff168152505083838151811061074557610744612248565b5b6020026020010181905250818061075b90612277565b925050808061076990612277565b915050610477565b50819250505090565b8160008111801561078c575060015481105b6107cb576040517f08c379a00000000000000000000000000000000000000000000000000000000081526004016107c29061230b565b60405180910390fd5b600082511161080f576040517f08c379a000000000000000000000000000000000000000000000000000000000815260040161080690612377565b60405180910390fd5b600080600085815260200190815260200160002060070160009054906101000a900460ff1660ff1603610877576040517f08c379a000000000000000000000000000000000000000000000000000000000815260040161086e90612409565b60405180910390fd5b81600080858152602001908152602001600020600601908161089991906125d5565b507fcdbb24b2fc0645c916160f8f57eab66f7a3001a7f0e08950df7481a3624e671c83836040516108cb9291906126a7565b60405180910390a1505050565b6060600080600190505b600154811015610a13578373ffffffffffffffffffffffffffffffffffffffff1660008083815260200190815260200160002060010160009054906101000a900473ffffffffffffffffffffffffffffffffffffffff1673ffffffffffffffffffffffffffffffffffffffff1614806109bb57508373ffffffffffffffffffffffffffffffffffffffff1660008083815260200190815260200160002060020160009054906101000a900473ffffffffffffffffffffffffffffffffffffffff1673ffffffffffffffffffffffffffffffffffffffff16145b80156109ec5750600080600083815260200190815260200160002060070160009054906101000a900460ff1660ff16145b15610a005781806109fc90612277565b9250505b8080610a0b90612277565b9150506108e2565b5060008167ffffffffffffffff811115610a3057610a2f611eff565b5b604051908082528060200260200182016040528015610a6957816020015b610a56611a62565b815260200190600190039081610a4e5790505b509050600080600190505b600154811015610e74578573ffffffffffffffffffffffffffffffffffffffff1660008083815260200190815260200160002060010160009054906101000a900473ffffffffffffffffffffffffffffffffffffffff1673ffffffffffffffffffffffffffffffffffffffff161480610b4d57508573ffffffffffffffffffffffffffffffffffffffff1660008083815260200190815260200160002060020160009054906101000a900473ffffffffffffffffffffffffffffffffffffffff1673ffffffffffffffffffffffffffffffffffffffff16145b8015610b7e5750600080600083815260200190815260200160002060070160009054906101000a900460ff1660ff16145b15610e615760008082815260200190815260200160002060405180610100016040529081600082015481526020016001820160009054906101000a900473ffffffffffffffffffffffffffffffffffffffff1673ffffffffffffffffffffffffffffffffffffffff1673ffffffffffffffffffffffffffffffffffffffff1681526020016002820160009054906101000a900473ffffffffffffffffffffffffffffffffffffffff1673ffffffffffffffffffffffffffffffffffffffff1673ffffffffffffffffffffffffffffffffffffffff168152602001600382018054610c67906121b4565b80601f0160208091040260200160405190810160405280929190818152602001828054610c93906121b4565b8015610ce05780601f10610cb557610100808354040283529160200191610ce0565b820191906000526020600020905b815481529060010190602001808311610cc357829003601f168201915b50505050508152602001600482018054610cf9906121b4565b80601f0160208091040260200160405190810160405280929190818152602001828054610d25906121b4565b8015610d725780601f10610d4757610100808354040283529160200191610d72565b820191906000526020600020905b815481529060010190602001808311610d5557829003601f168201915b5050505050815260200160058201548152602001600682018054610d95906121b4565b80601f0160208091040260200160405190810160405280929190818152602001828054610dc1906121b4565b8015610e0e5780601f10610de357610100808354040283529160200191610e0e565b820191906000526020600020905b815481529060010190602001808311610df157829003601f168201915b505050505081526020016007820160009054906101000a900460ff1660ff1660ff1681525050838381518110610e4757610e46612248565b5b60200260200101819052508180610e5d90612277565b9250505b8080610e6c90612277565b915050610a74565b50819350505050919050565b60015481565b80600081118015610e98575060015481105b610ed7576040517f08c379a0000000000000000000000000000000000000000000000000000000008152600401610ece9061230b565b60405180910390fd5b8160008082815260200190815260200160002060020160009054906101000a900473ffffffffffffffffffffffffffffffffffffffff1673ffffffffffffffffffffffffffffffffffffffff163373ffffffffffffffffffffffffffffffffffffffff1614610f7b576040517f08c379a0000000000000000000000000000000000000000000000000000000008152600401610f7290612749565b60405180910390fd5b600080600085815260200190815260200160002060070160009054906101000a900460ff1660ff1614610fe3576040517f08c379a0000000000000000000000000000000000000000000000000000000008152600401610fda906127b5565b60405180910390fd5b600260008085815260200190815260200160002060070160006101000a81548160ff021916908360ff1602179055503373ffffffffffffffffffffffffffffffffffffffff167f2bd071b29250b574ac02f5b100db32ce1931388f81d387da49b295dab1ce4a148460405161105891906120df565b60405180910390a2505050565b6060600080600190505b60015481101561116f578373ffffffffffffffffffffffffffffffffffffffff1660008083815260200190815260200160002060010160009054906101000a900473ffffffffffffffffffffffffffffffffffffffff1673ffffffffffffffffffffffffffffffffffffffff16148061114857508373ffffffffffffffffffffffffffffffffffffffff1660008083815260200190815260200160002060020160009054906101000a900473ffffffffffffffffffffffffffffffffffffffff1673ffffffffffffffffffffffffffffffffffffffff16145b1561115c57818061115890612277565b9250505b808061116790612277565b91505061106f565b5060008167ffffffffffffffff81111561118c5761118b611eff565b5b6040519080825280602002602001820160405280156111c557816020015b6111b2611a62565b8152602001906001900390816111aa5790505b509050600080600190505b60015481101561159f578573ffffffffffffffffffffffffffffffffffffffff1660008083815260200190815260200160002060010160009054906101000a900473ffffffffffffffffffffffffffffffffffffffff1673ffffffffffffffffffffffffffffffffffffffff1614806112a957508573ffffffffffffffffffffffffffffffffffffffff1660008083815260200190815260200160002060020160009054906101000a900473ffffffffffffffffffffffffffffffffffffffff1673ffffffffffffffffffffffffffffffffffffffff16145b1561158c5760008082815260200190815260200160002060405180610100016040529081600082015481526020016001820160009054906101000a900473ffffffffffffffffffffffffffffffffffffffff1673ffffffffffffffffffffffffffffffffffffffff1673ffffffffffffffffffffffffffffffffffffffff1681526020016002820160009054906101000a900473ffffffffffffffffffffffffffffffffffffffff1673ffffffffffffffffffffffffffffffffffffffff1673ffffffffffffffffffffffffffffffffffffffff168152602001600382018054611392906121b4565b80601f01602080910402602001604051908101604052809291908181526020018280546113be906121b4565b801561140b5780601f106113e05761010080835404028352916020019161140b565b820191906000526020600020905b8154815290600101906020018083116113ee57829003601f168201915b50505050508152602001600482018054611424906121b4565b80601f0160208091040260200160405190810160405280929190818152602001828054611450906121b4565b801561149d5780601f106114725761010080835404028352916020019161149d565b820191906000526020600020905b81548152906001019060200180831161148057829003601f168201915b50505050508152602001600582015481526020016006820180546114c0906121b4565b80601f01602080910402602001604051908101604052809291908181526020018280546114ec906121b4565b80156115395780601f1061150e57610100808354040283529160200191611539565b820191906000526020600020905b81548152906001019060200180831161151c57829003601f168201915b505050505081526020016007820160009054906101000a900460ff1660ff1660ff168152505083838151811061157257611571612248565b5b6020026020010181905250818061158890612277565b9250505b808061159790612277565b9150506111d0565b50819350505050919050565b3373ffffffffffffffffffffffffffffffffffffffff168373ffffffffffffffffffffffffffffffffffffffff1603611619576040517f08c379a000000000000000000000000000000000000000000000000000000000815260040161161090612847565b60405180910390fd5b6000825111801561162b575060008151115b61166a576040517f08c379a0000000000000000000000000000000000000000000000000000000008152600401611661906128b3565b60405180910390fd5b60006001600081548092919061167f90612277565b9190505590506040518061010001604052808281526020013373ffffffffffffffffffffffffffffffffffffffff1681526020018573ffffffffffffffffffffffffffffffffffffffff168152602001848152602001838152602001428152602001604051806020016040528060008152508152602001600060ff168152506000808381526020019081526020016000206000820151816000015560208201518160010160006101000a81548173ffffffffffffffffffffffffffffffffffffffff021916908373ffffffffffffffffffffffffffffffffffffffff16021790555060408201518160020160006101000a81548173ffffffffffffffffffffffffffffffffffffffff021916908373ffffffffffffffffffffffffffffffffffffffff16021790555060608201518160030190816117bd91906125d5565b5060808201518160040190816117d391906125d5565b5060a0820151816005015560c08201518160060190816117f391906125d5565b5060e08201518160070160006101000a81548160ff021916908360ff1602179055509050508373ffffffffffffffffffffffffffffffffffffffff163373ffffffffffffffffffffffffffffffffffffffff167f9ab41c67851afecdc3bc6076f505a246b7d9e4d1350d2b35a8fbb7ab650394548360405161187591906120df565b60405180910390a350505050565b80600081118015611895575060015481105b6118d4576040517f08c379a00000000000000000000000000000000000000000000000000000000081526004016118cb9061230b565b60405180910390fd5b8160008082815260200190815260200160002060020160009054906101000a900473ffffffffffffffffffffffffffffffffffffffff1673ffffffffffffffffffffffffffffffffffffffff163373ffffffffffffffffffffffffffffffffffffffff1614611978576040517f08c379a000000000000000000000000000000000000000000000000000000000815260040161196f90612749565b60405180910390fd5b600080600085815260200190815260200160002060070160009054906101000a900460ff1660ff16146119e0576040517f08c379a00000000000000000000000000000000000000000000000000000000081526004016119d7906127b5565b60405180910390fd5b600160008085815260200190815260200160002060070160006101000a81548160ff021916908360ff1602179055503373ffffffffffffffffffffffffffffffffffffffff167fe24d96506e557bebbc5ef235955580f24280c7e7a013ef2d7c733519a6f1796384604051611a5591906120df565b60405180910390a2505050565b60405180610100016040528060008152602001600073ffffffffffffffffffffffffffffffffffffffff168152602001600073ffffffffffffffffffffffffffffffffffffffff16815260200160608152602001606081526020016000815260200160608152602001600060ff1681525090565b6000604051905090565b600080fd5b600080fd5b6000819050919050565b611afd81611aea565b8114611b0857600080fd5b50565b600081359050611b1a81611af4565b92915050565b600060208284031215611b3657611b35611ae0565b5b6000611b4484828501611b0b565b91505092915050565b611b5681611aea565b82525050565b600073ffffffffffffffffffffffffffffffffffffffff82169050919050565b6000611b8782611b5c565b9050919050565b611b9781611b7c565b82525050565b600081519050919050565b600082825260208201905092915050565b60005b83811015611bd7578082015181840152602081019050611bbc565b60008484015250505050565b6000601f19601f8301169050919050565b6000611bff82611b9d565b611c098185611ba8565b9350611c19818560208601611bb9565b611c2281611be3565b840191505092915050565b600060ff82169050919050565b611c4381611c2d565b82525050565b600061010082019050611c5f600083018b611b4d565b611c6c602083018a611b8e565b611c796040830189611b8e565b8181036060830152611c8b8188611bf4565b90508181036080830152611c9f8187611bf4565b9050611cae60a0830186611b4d565b81810360c0830152611cc08185611bf4565b9050611ccf60e0830184611c3a565b9998505050505050505050565b600081519050919050565b600082825260208201905092915050565b6000819050602082019050919050565b611d1181611aea565b82525050565b611d2081611b7c565b82525050565b600082825260208201905092915050565b6000611d4282611b9d565b611d4c8185611d26565b9350611d5c818560208601611bb9565b611d6581611be3565b840191505092915050565b611d7981611c2d565b82525050565b600061010083016000830151611d986000860182611d08565b506020830151611dab6020860182611d17565b506040830151611dbe6040860182611d17565b5060608301518482036060860152611dd68282611d37565b91505060808301518482036080860152611df08282611d37565b91505060a0830151611e0560a0860182611d08565b5060c083015184820360c0860152611e1d8282611d37565b91505060e0830151611e3260e0860182611d70565b508091505092915050565b6000611e498383611d7f565b905092915050565b6000602082019050919050565b6000611e6982611cdc565b611e738185611ce7565b935083602082028501611e8585611cf8565b8060005b85811015611ec15784840389528151611ea28582611e3d565b9450611ead83611e51565b925060208a01995050600181019050611e89565b50829750879550505050505092915050565b60006020820190508181036000830152611eed8184611e5e565b905092915050565b600080fd5b600080fd5b7f4e487b7100000000000000000000000000000000000000000000000000000000600052604160045260246000fd5b611f3782611be3565b810181811067ffffffffffffffff82111715611f5657611f55611eff565b5b80604052505050565b6000611f69611ad6565b9050611f758282611f2e565b919050565b600067ffffffffffffffff821115611f9557611f94611eff565b5b611f9e82611be3565b9050602081019050919050565b82818337600083830152505050565b6000611fcd611fc884611f7a565b611f5f565b905082815260208101848484011115611fe957611fe8611efa565b5b611ff4848285611fab565b509392505050565b600082601f83011261201157612010611ef5565b5b8135612021848260208601611fba565b91505092915050565b6000806040838503121561204157612040611ae0565b5b600061204f85828601611b0b565b925050602083013567ffffffffffffffff8111156120705761206f611ae5565b5b61207c85828601611ffc565b9150509250929050565b61208f81611b7c565b811461209a57600080fd5b50565b6000813590506120ac81612086565b92915050565b6000602082840312156120c8576120c7611ae0565b5b60006120d68482850161209d565b91505092915050565b60006020820190506120f46000830184611b4d565b92915050565b60008060006060848603121561211357612112611ae0565b5b60006121218682870161209d565b935050602084013567ffffffffffffffff81111561214257612141611ae5565b5b61214e86828701611ffc565b925050604084013567ffffffffffffffff81111561216f5761216e611ae5565b5b61217b86828701611ffc565b9150509250925092565b7f4e487b7100000000000000000000000000000000000000000000000000000000600052602260045260246000fd5b600060028204905060018216806121cc57607f821691505b6020821081036121df576121de612185565b5b50919050565b7f4e487b7100000000000000000000000000000000000000000000000000000000600052601160045260246000fd5b600061221f82611aea565b915061222a83611aea565b9250828203905081811115612242576122416121e5565b5b92915050565b7f4e487b7100000000000000000000000000000000000000000000000000000000600052603260045260246000fd5b600061228282611aea565b91507fffffffffffffffffffffffffffffffffffffffffffffffffffffffffffffffff82036122b4576122b36121e5565b5b600182019050919050565b7f496e76616c69642065786368616e676520494400000000000000000000000000600082015250565b60006122f5601383611ba8565b9150612300826122bf565b602082019050919050565b60006020820190508181036000830152612324816122e8565b9050919050565b7f5472616e73616374696f6e206861736820726571756972656400000000000000600082015250565b6000612361601983611ba8565b915061236c8261232b565b602082019050919050565b6000602082019050818103600083015261239081612354565b9050919050565b7f45786368616e6765206d75737420626520636f6e6669726d6564206f7220726560008201527f6a65637465642066697273740000000000000000000000000000000000000000602082015250565b60006123f3602c83611ba8565b91506123fe82612397565b604082019050919050565b60006020820190508181036000830152612422816123e6565b9050919050565b60008190508160005260206000209050919050565b60006020601f8301049050919050565b600082821b905092915050565b60006008830261248b7fffffffffffffffffffffffffffffffffffffffffffffffffffffffffffffffff8261244e565b612495868361244e565b95508019841693508086168417925050509392505050565b6000819050919050565b60006124d26124cd6124c884611aea565b6124ad565b611aea565b9050919050565b6000819050919050565b6124ec836124b7565b6125006124f8826124d9565b84845461245b565b825550505050565b600090565b612515612508565b6125208184846124e3565b505050565b5b818110156125445761253960008261250d565b600181019050612526565b5050565b601f8211156125895761255a81612429565b6125638461243e565b81016020851015612572578190505b61258661257e8561243e565b830182612525565b50505b505050565b600082821c905092915050565b60006125ac6000198460080261258e565b1980831691505092915050565b60006125c5838361259b565b9150826002028217905092915050565b6125de82611b9d565b67ffffffffffffffff8111156125f7576125f6611eff565b5b61260182546121b4565b61260c828285612548565b600060209050601f83116001811461263f576000841561262d578287015190505b61263785826125b9565b86555061269f565b601f19841661264d86612429565b60005b8281101561267557848901518255600182019150602085019450602081019050612650565b86831015612692578489015161268e601f89168261259b565b8355505b6001600288020188555050505b505050505050565b60006040820190506126bc6000830185611b4d565b81810360208301526126ce8184611bf4565b90509392505050565b7f4f6e6c7920726563697069656e742063616e2070726f6365737320746869732060008201527f65786368616e6765000000000000000000000000000000000000000000000000602082015250565b6000612733602883611ba8565b915061273e826126d7565b604082019050919050565b6000602082019050818103600083015261276281612726565b9050919050565b7f45786368616e676520697320616c72656164792070726f636573736564000000600082015250565b600061279f601d83611ba8565b91506127aa82612769565b602082019050919050565b600060208201905081810360008301526127ce81612792565b9050919050565b7f596f752063616e6e6f742065786368616e6765207769746820796f757273656c60008201527f6600000000000000000000000000000000000000000000000000000000000000602082015250565b6000612831602183611ba8565b915061283c826127d5565b604082019050919050565b6000602082019050818103600083015261286081612824565b9050919050565b7f496e76616c6964206974656d2049447300000000000000000000000000000000600082015250565b600061289d601083611ba8565b91506128a882612867565b602082019050919050565b600060208201905081810360008301526128cc81612890565b905091905056fea2646970667358221220feb4c502a97c92cf073b1ffba0e6bc7590fc16da154901dccfe9d665662653b164736f6c63430008140033",
  "linkReferences": {},
  "deployedLinkReferences": {}
}