{
  "_format": "hh-sol-artifact-1",
  "contractName": "DonateContract",
  "sourceName": "contracts/DonateContract.sol",
  "abi": [
    {
      "inputs": [
        {
          "internalType": "address",
          "name": "_recipientWallet",
          "type": "address"
        }
      ],
      "stateMutability": "nonpayable",
      "type": "constructor"
    },
    {
      "anonymous": false,
      "inputs": [
        {
          "indexed": true,
          "internalType": "address",
          "name": "donor",
          "type": "address"
        },
        {
          "indexed": false,
          "internalType": "uint256",
          "name": "amount",
          "type": "uint256"
        },
        {
          "indexed": false,
          "internalType": "uint256",
          "name": "timestamp",
          "type": "uint256"
        },
        {
          "indexed": false,
          "internalType": "uint256",
          "name": "usdAmount",
          "type": "uint256"
        },
        {
          "indexed": false,
          "internalType": "bytes32",
          "name": "txHash",
          "type": "bytes32"
        }
      ],
      "name": "DonationReceived",
      "type": "event"
    },
    {
      "inputs": [
        {
          "internalType": "uint256",
          "name": "usdAmount",
          "type": "uint256"
        }
      ],
      "name": "donate",
      "outputs": [],
      "stateMutability": "payable",
      "type": "function"
    },
    {
      "inputs": [
        {
          "internalType": "uint256",
          "name": "",
          "type": "uint256"
        }
      ],
      "name": "donations",
      "outputs": [
        {
          "internalType": "address",
          "name": "donor",
          "type": "address"
        },
        {
          "internalType": "uint256",
          "name": "amount",
          "type": "uint256"
        },
        {
          "internalType": "uint256",
          "name": "timestamp",
          "type": "uint256"
        },
        {
          "internalType": "uint256",
          "name": "usdAmount",
          "type": "uint256"
        },
        {
          "internalType": "bytes32",
          "name": "txHash",
          "type": "bytes32"
        }
      ],
      "stateMutability": "view",
      "type": "function"
    },
    {
      "inputs": [
        {
          "internalType": "address",
          "name": "",
          "type": "address"
        },
        {
          "internalType": "uint256",
          "name": "",
          "type": "uint256"
        }
      ],
      "name": "donorHistory",
      "outputs": [
        {
          "internalType": "address",
          "name": "donor",
          "type": "address"
        },
        {
          "internalType": "uint256",
          "name": "amount",
          "type": "uint256"
        },
        {
          "internalType": "uint256",
          "name": "timestamp",
          "type": "uint256"
        },
        {
          "internalType": "uint256",
          "name": "usdAmount",
          "type": "uint256"
        },
        {
          "internalType": "bytes32",
          "name": "txHash",
          "type": "bytes32"
        }
      ],
      "stateMutability": "view",
      "type": "function"
    },
    {
      "inputs": [],
      "name": "getAllDonations",
      "outputs": [
        {
          "components": [
            {
              "internalType": "address",
              "name": "donor",
              "type": "address"
            },
            {
              "internalType": "uint256",
              "name": "amount",
              "type": "uint256"
            },
            {
              "internalType": "uint256",
              "name": "timestamp",
              "type": "uint256"
            },
            {
              "internalType": "uint256",
              "name": "usdAmount",
              "type": "uint256"
            },
            {
              "internalType": "bytes32",
              "name": "txHash",
              "type": "bytes32"
            }
          ],
          "internalType": "struct DonateContract.Donation[]",
          "name": "",
          "type": "tuple[]"
        }
      ],
      "stateMutability": "view",
      "type": "function"
    },
    {
      "inputs": [
        {
          "internalType": "address",
          "name": "_donor",
          "type": "address"
        }
      ],
      "name": "getDonationsByAddress",
      "outputs": [
        {
          "components": [
            {
              "internalType": "address",
              "name": "donor",
              "type": "address"
            },
            {
              "internalType": "uint256",
              "name": "amount",
              "type": "uint256"
            },
            {
              "internalType": "uint256",
              "name": "timestamp",
              "type": "uint256"
            },
            {
              "internalType": "uint256",
              "name": "usdAmount",
              "type": "uint256"
            },
            {
              "internalType": "bytes32",
              "name": "txHash",
              "type": "bytes32"
            }
          ],
          "internalType": "struct DonateContract.Donation[]",
          "name": "",
          "type": "tuple[]"
        }
      ],
      "stateMutability": "view",
      "type": "function"
    },
    {
      "inputs": [],
      "name": "owner",
      "outputs": [
        {
          "internalType": "address",
          "name": "",
          "type": "address"
        }
      ],
      "stateMutability": "view",
      "type": "function"
    },
    {
      "inputs": [],
      "name": "recipientWallet",
      "outputs": [
        {
          "internalType": "address",
          "name": "",
          "type": "address"
        }
      ],
      "stateMutability": "view",
      "type": "function"
    },
    {
      "inputs": [
        {
          "internalType": "bytes32",
          "name": "txHash",
          "type": "bytes32"
        }
      ],
      "name": "registerTxHash",
      "outputs": [],
      "stateMutability": "nonpayable",
      "type": "function"
    },
    {
      "inputs": [
        {
          "internalType": "address",
          "name": "_newRecipient",
          "type": "address"
        }
      ],
      "name": "updateRecipientWallet",
      "outputs": [],
      "stateMutability": "nonpayable",
      "type": "function"
    }
  ],
  "bytecode": "0x60806040523480156200001157600080fd5b506040516200152b3803806200152b833981810160405281019062000037919062000129565b336000806101000a81548173ffffffffffffffffffffffffffffffffffffffff021916908373ffffffffffffffffffffffffffffffffffffffff16021790555080600160006101000a81548173ffffffffffffffffffffffffffffffffffffffff021916908373ffffffffffffffffffffffffffffffffffffffff160217905550506200015b565b600080fd5b600073ffffffffffffffffffffffffffffffffffffffff82169050919050565b6000620000f182620000c4565b9050919050565b6200010381620000e4565b81146200010f57600080fd5b50565b6000815190506200012381620000f8565b92915050565b600060208284031215620001425762000141620000bf565b5b6000620001528482850162000112565b91505092915050565b6113c0806200016b6000396000f3fe6080604052600436106100865760003560e01c80639c9c2a0f116100595780639c9c2a0f1461014d578063a0bd017d1461018a578063c19507ab146101b3578063f14faf6f146101dc578063f8626af8146101f857610086565b8063136758fd1461008b57806338a59a07146100b65780637969f3b8146100e15780638da5cb5b14610122575b600080fd5b34801561009757600080fd5b506100a0610239565b6040516100ad9190610ce1565b60405180910390f35b3480156100c257600080fd5b506100cb61025f565b6040516100d89190610e54565b60405180910390f35b3480156100ed57600080fd5b5061010860048036038101906101039190610ed3565b61033c565b604051610119959493929190610f31565b60405180910390f35b34801561012e57600080fd5b506101376103af565b6040516101449190610ce1565b60405180910390f35b34801561015957600080fd5b50610174600480360381019061016f9190610f84565b6103d3565b6040516101819190610e54565b60405180910390f35b34801561019657600080fd5b506101b160048036038101906101ac9190610fdd565b6104ef565b005b3480156101bf57600080fd5b506101da60048036038101906101d59190610f84565b610840565b005b6101f660048036038101906101f1919061100a565b610912565b005b34801561020457600080fd5b5061021f600480360381019061021a919061100a565b610c3a565b604051610230959493929190610f31565b60405180910390f35b600160009054906101000a900473ffffffffffffffffffffffffffffffffffffffff1681565b60606002805480602002602001604051908101604052809291908181526020016000905b8282101561033357838290600052602060002090600502016040518060a00160405290816000820160009054906101000a900473ffffffffffffffffffffffffffffffffffffffff1673ffffffffffffffffffffffffffffffffffffffff1673ffffffffffffffffffffffffffffffffffffffff16815260200160018201548152602001600282015481526020016003820154815260200160048201548152505081526020019060010190610283565b50505050905090565b6003602052816000526040600020818154811061035857600080fd5b9060005260206000209060050201600091509150508060000160009054906101000a900473ffffffffffffffffffffffffffffffffffffffff16908060010154908060020154908060030154908060040154905085565b60008054906101000a900473ffffffffffffffffffffffffffffffffffffffff1681565b6060600360008373ffffffffffffffffffffffffffffffffffffffff1673ffffffffffffffffffffffffffffffffffffffff168152602001908152602001600020805480602002602001604051908101604052809291908181526020016000905b828210156104e457838290600052602060002090600502016040518060a00160405290816000820160009054906101000a900473ffffffffffffffffffffffffffffffffffffffff1673ffffffffffffffffffffffffffffffffffffffff1673ffffffffffffffffffffffffffffffffffffffff16815260200160018201548152602001600282015481526020016003820154815260200160048201548152505081526020019060010190610434565b505050509050919050565b6000600360003373ffffffffffffffffffffffffffffffffffffffff1673ffffffffffffffffffffffffffffffffffffffff1681526020019081526020016000208054905011610574576040517f08c379a000000000000000000000000000000000000000000000000000000000815260040161056b90611094565b60405180910390fd5b60006001600360003373ffffffffffffffffffffffffffffffffffffffff1673ffffffffffffffffffffffffffffffffffffffff168152602001908152602001600020805490506105c591906110e3565b905081600360003373ffffffffffffffffffffffffffffffffffffffff1673ffffffffffffffffffffffffffffffffffffffff168152602001908152602001600020828154811061061957610618611117565b5b906000526020600020906005020160040181905550600060028054905090505b600081111561083b573373ffffffffffffffffffffffffffffffffffffffff16600260018361066891906110e3565b8154811061067957610678611117565b5b906000526020600020906005020160000160009054906101000a900473ffffffffffffffffffffffffffffffffffffffff1673ffffffffffffffffffffffffffffffffffffffff1614801561070157506000801b60026001836106dc91906110e3565b815481106106ed576106ec611117565b5b906000526020600020906005020160040154145b156108285782600260018361071691906110e3565b8154811061072757610726611117565b5b9060005260206000209060050201600401819055503373ffffffffffffffffffffffffffffffffffffffff167f4efeaa2447f98f02d4c0319a36151b956fa9c5f7308e86f5b70a238eb6c246ef600260018461078391906110e3565b8154811061079457610793611117565b5b90600052602060002090600502016001015460026001856107b591906110e3565b815481106107c6576107c5611117565b5b90600052602060002090600502016002015460026001866107e791906110e3565b815481106107f8576107f7611117565b5b9060005260206000209060050201600301548760405161081b9493929190611146565b60405180910390a261083b565b80806108339061118b565b915050610639565b505050565b60008054906101000a900473ffffffffffffffffffffffffffffffffffffffff1673ffffffffffffffffffffffffffffffffffffffff163373ffffffffffffffffffffffffffffffffffffffff16146108ce576040517f08c379a00000000000000000000000000000000000000000000000000000000081526004016108c590611226565b60405180910390fd5b80600160006101000a81548173ffffffffffffffffffffffffffffffffffffffff021916908373ffffffffffffffffffffffffffffffffffffffff16021790555050565b60003411610955576040517f08c379a000000000000000000000000000000000000000000000000000000000815260040161094c906112b8565b60405180910390fd5b60006040518060a001604052803373ffffffffffffffffffffffffffffffffffffffff1681526020013481526020014281526020018381526020016000801b8152509050600281908060018154018082558091505060019003906000526020600020906005020160009091909190915060008201518160000160006101000a81548173ffffffffffffffffffffffffffffffffffffffff021916908373ffffffffffffffffffffffffffffffffffffffff160217905550602082015181600101556040820151816002015560608201518160030155608082015181600401555050600360003373ffffffffffffffffffffffffffffffffffffffff1673ffffffffffffffffffffffffffffffffffffffff16815260200190815260200160002081908060018154018082558091505060019003906000526020600020906005020160009091909190915060008201518160000160006101000a81548173ffffffffffffffffffffffffffffffffffffffff021916908373ffffffffffffffffffffffffffffffffffffffff1602179055506020820151816001015560408201518160020155606082015181600301556080820151816004015550506000600160009054906101000a900473ffffffffffffffffffffffffffffffffffffffff1673ffffffffffffffffffffffffffffffffffffffff1634604051610b5890611309565b60006040518083038185875af1925050503d8060008114610b95576040519150601f19603f3d011682016040523d82523d6000602084013e610b9a565b606091505b5050905080610bde576040517f08c379a0000000000000000000000000000000000000000000000000000000008152600401610bd59061136a565b60405180910390fd5b3373ffffffffffffffffffffffffffffffffffffffff167f4efeaa2447f98f02d4c0319a36151b956fa9c5f7308e86f5b70a238eb6c246ef3442866000801b604051610c2d9493929190611146565b60405180910390a2505050565b60028181548110610c4a57600080fd5b90600052602060002090600502016000915090508060000160009054906101000a900473ffffffffffffffffffffffffffffffffffffffff16908060010154908060020154908060030154908060040154905085565b600073ffffffffffffffffffffffffffffffffffffffff82169050919050565b6000610ccb82610ca0565b9050919050565b610cdb81610cc0565b82525050565b6000602082019050610cf66000830184610cd2565b92915050565b600081519050919050565b600082825260208201905092915050565b6000819050602082019050919050565b610d3181610cc0565b82525050565b6000819050919050565b610d4a81610d37565b82525050565b6000819050919050565b610d6381610d50565b82525050565b60a082016000820151610d7f6000850182610d28565b506020820151610d926020850182610d41565b506040820151610da56040850182610d41565b506060820151610db86060850182610d41565b506080820151610dcb6080850182610d5a565b50505050565b6000610ddd8383610d69565b60a08301905092915050565b6000602082019050919050565b6000610e0182610cfc565b610e0b8185610d07565b9350610e1683610d18565b8060005b83811015610e47578151610e2e8882610dd1565b9750610e3983610de9565b925050600181019050610e1a565b5085935050505092915050565b60006020820190508181036000830152610e6e8184610df6565b905092915050565b600080fd5b610e8481610cc0565b8114610e8f57600080fd5b50565b600081359050610ea181610e7b565b92915050565b610eb081610d37565b8114610ebb57600080fd5b50565b600081359050610ecd81610ea7565b92915050565b60008060408385031215610eea57610ee9610e76565b5b6000610ef885828601610e92565b9250506020610f0985828601610ebe565b9150509250929050565b610f1c81610d37565b82525050565b610f2b81610d50565b82525050565b600060a082019050610f466000830188610cd2565b610f536020830187610f13565b610f606040830186610f13565b610f6d6060830185610f13565b610f7a6080830184610f22565b9695505050505050565b600060208284031215610f9a57610f99610e76565b5b6000610fa884828501610e92565b91505092915050565b610fba81610d50565b8114610fc557600080fd5b50565b600081359050610fd781610fb1565b92915050565b600060208284031215610ff357610ff2610e76565b5b600061100184828501610fc8565b91505092915050565b6000602082840312156110205761101f610e76565b5b600061102e84828501610ebe565b91505092915050565b600082825260208201905092915050565b7f4e6f20646f6e6174696f6e20666f756e64000000000000000000000000000000600082015250565b600061107e601183611037565b915061108982611048565b602082019050919050565b600060208201905081810360008301526110ad81611071565b9050919050565b7f4e487b7100000000000000000000000000000000000000000000000000000000600052601160045260246000fd5b60006110ee82610d37565b91506110f983610d37565b9250828203905081811115611111576111106110b4565b5b92915050565b7f4e487b7100000000000000000000000000000000000000000000000000000000600052603260045260246000fd5b600060808201905061115b6000830187610f13565b6111686020830186610f13565b6111756040830185610f13565b6111826060830184610f22565b95945050505050565b600061119682610d37565b9150600082036111a9576111a86110b4565b5b600182039050919050565b7f4f6e6c79206f776e65722063616e2075706461746520726563697069656e742060008201527f77616c6c65740000000000000000000000000000000000000000000000000000602082015250565b6000611210602683611037565b915061121b826111b4565b604082019050919050565b6000602082019050818103600083015261123f81611203565b9050919050565b7f446f6e6174696f6e20616d6f756e74206d75737420626520677265617465722060008201527f7468616e20300000000000000000000000000000000000000000000000000000602082015250565b60006112a2602683611037565b91506112ad82611246565b604082019050919050565b600060208201905081810360008301526112d181611295565b9050919050565b600081905092915050565b50565b60006112f36000836112d8565b91506112fe826112e3565b600082019050919050565b6000611314826112e6565b9150819050919050565b7f5472616e7366657220746f20726563697069656e74206661696c656400000000600082015250565b6000611354601c83611037565b915061135f8261131e565b602082019050919050565b6000602082019050818103600083015261138381611347565b905091905056fea2646970667358221220be012d9f859026b5ac25cf1e2e71ceb60570c13733095e93d2da21fcfc92c43f64736f6c63430008140033",
  "linkReferences": {},
  "deployedLinkReferences": {}
}