{
  "_format": "hh-sol-artifact-1",
  "contractName": "TradeRecord",
  "sourceName": "contracts/TradeContract.sol",
  "abi": [
    {
      "anonymous": false,
      "inputs": [
        {
          "indexed": false,
          "internalType": "string",
          "name": "tradeId",
          "type": "string"
        },
        {
          "indexed": false,
          "internalType": "address",
          "name": "buyer",
          "type": "address"
        },
        {
          "indexed": false,
          "internalType": "address",
          "name": "seller",
          "type": "address"
        },
        {
          "indexed": false,
          "internalType": "string",
          "name": "itemId",
          "type": "string"
        },
        {
          "indexed": false,
          "internalType": "uint256",
          "name": "priceUsd",
          "type": "uint256"
        },
        {
          "indexed": false,
          "internalType": "uint256",
          "name": "priceEth",
          "type": "uint256"
        },
        {
          "indexed": false,
          "internalType": "string",
          "name": "timestamp",
          "type": "string"
        },
        {
          "indexed": false,
          "internalType": "string",
          "name": "transactionHash",
          "type": "string"
        }
      ],
      "name": "TradeRecorded",
      "type": "event"
    },
    {
      "inputs": [],
      "name": "getAllTrades",
      "outputs": [
        {
          "components": [
            {
              "internalType": "string",
              "name": "tradeId",
              "type": "string"
            },
            {
              "internalType": "address",
              "name": "buyer",
              "type": "address"
            },
            {
              "internalType": "address",
              "name": "seller",
              "type": "address"
            },
            {
              "internalType": "string",
              "name": "itemId",
              "type": "string"
            },
            {
              "internalType": "uint256",
              "name": "priceUsd",
              "type": "uint256"
            },
            {
              "internalType": "uint256",
              "name": "priceEth",
              "type": "uint256"
            },
            {
              "internalType": "string",
              "name": "timestamp",
              "type": "string"
            },
            {
              "internalType": "string",
              "name": "transactionHash",
              "type": "string"
            }
          ],
          "internalType": "struct TradeRecord.Trade[]",
          "name": "",
          "type": "tuple[]"
        }
      ],
      "stateMutability": "view",
      "type": "function"
    },
    {
      "inputs": [
        {
          "internalType": "address",
          "name": "buyerWallet",
          "type": "address"
        }
      ],
      "name": "getTradesByBuyer",
      "outputs": [
        {
          "components": [
            {
              "internalType": "string",
              "name": "tradeId",
              "type": "string"
            },
            {
              "internalType": "address",
              "name": "buyer",
              "type": "address"
            },
            {
              "internalType": "address",
              "name": "seller",
              "type": "address"
            },
            {
              "internalType": "string",
              "name": "itemId",
              "type": "string"
            },
            {
              "internalType": "uint256",
              "name": "priceUsd",
              "type": "uint256"
            },
            {
              "internalType": "uint256",
              "name": "priceEth",
              "type": "uint256"
            },
            {
              "internalType": "string",
              "name": "timestamp",
              "type": "string"
            },
            {
              "internalType": "string",
              "name": "transactionHash",
              "type": "string"
            }
          ],
          "internalType": "struct TradeRecord.Trade[]",
          "name": "",
          "type": "tuple[]"
        }
      ],
      "stateMutability": "view",
      "type": "function"
    },
    {
      "inputs": [
        {
          "internalType": "string",
          "name": "tradeId",
          "type": "string"
        },
        {
          "internalType": "address",
          "name": "buyer",
          "type": "address"
        },
        {
          "internalType": "address",
          "name": "seller",
          "type": "address"
        },
        {
          "internalType": "string",
          "name": "itemId",
          "type": "string"
        },
        {
          "internalType": "uint256",
          "name": "priceUsd",
          "type": "uint256"
        },
        {
          "internalType": "uint256",
          "name": "priceEth",
          "type": "uint256"
        },
        {
          "internalType": "string",
          "name": "timestamp",
          "type": "string"
        },
        {
          "internalType": "string",
          "name": "txHash",
          "type": "string"
        }
      ],
      "name": "recordTrade",
      "outputs": [],
      "stateMutability": "nonpayable",
      "type": "function"
    },
    {
      "inputs": [
        {
          "internalType": "uint256",
          "name": "",
          "type": "uint256"
        }
      ],
      "name": "trades",
      "outputs": [
        {
          "internalType": "string",
          "name": "tradeId",
          "type": "string"
        },
        {
          "internalType": "address",
          "name": "buyer",
          "type": "address"
        },
        {
          "internalType": "address",
          "name": "seller",
          "type": "address"
        },
        {
          "internalType": "string",
          "name": "itemId",
          "type": "string"
        },
        {
          "internalType": "uint256",
          "name": "priceUsd",
          "type": "uint256"
        },
        {
          "internalType": "uint256",
          "name": "priceEth",
          "type": "uint256"
        },
        {
          "internalType": "string",
          "name": "timestamp",
          "type": "string"
        },
        {
          "internalType": "string",
          "name": "transactionHash",
          "type": "string"
        }
      ],
      "stateMutability": "view",
      "type": "function"
    }
  ],
  "bytecode": "0x608060405234801561001057600080fd5b506118e8806100206000396000f3fe608060405234801561001057600080fd5b506004361061004c5760003560e01c80631e59833c146100515780631e6c598e14610081578063a7f8e576146100b8578063ce99c0ce146100d4575b600080fd5b61006b60048036038101906100669190610eea565b6100f2565b6040516100789190611156565b60405180910390f35b61009b600480360381019061009691906111a4565b61060b565b6040516100af989796959493929190611239565b60405180910390f35b6100d260048036038101906100cd9190611408565b6108c3565b005b6100dc610a9f565b6040516100e99190611156565b60405180910390f35b6060600080600090505b6000805490508110156101a3578373ffffffffffffffffffffffffffffffffffffffff16600082815481106101345761013361152e565b5b906000526020600020906008020160010160009054906101000a900473ffffffffffffffffffffffffffffffffffffffff1673ffffffffffffffffffffffffffffffffffffffff160361019057818061018c9061158c565b9250505b808061019b9061158c565b9150506100fc565b5060008167ffffffffffffffff8111156101c0576101bf6112dd565b5b6040519080825280602002602001820160405280156101f957816020015b6101e6610e07565b8152602001906001900390816101de5790505b509050600080600090505b6000805490508110156105ff578573ffffffffffffffffffffffffffffffffffffffff166000828154811061023c5761023b61152e565b5b906000526020600020906008020160010160009054906101000a900473ffffffffffffffffffffffffffffffffffffffff1673ffffffffffffffffffffffffffffffffffffffff16036105ec576000818154811061029d5761029c61152e565b5b9060005260206000209060080201604051806101000160405290816000820180546102c790611603565b80601f01602080910402602001604051908101604052809291908181526020018280546102f390611603565b80156103405780601f1061031557610100808354040283529160200191610340565b820191906000526020600020905b81548152906001019060200180831161032357829003601f168201915b505050505081526020016001820160009054906101000a900473ffffffffffffffffffffffffffffffffffffffff1673ffffffffffffffffffffffffffffffffffffffff1673ffffffffffffffffffffffffffffffffffffffff1681526020016002820160009054906101000a900473ffffffffffffffffffffffffffffffffffffffff1673ffffffffffffffffffffffffffffffffffffffff1673ffffffffffffffffffffffffffffffffffffffff16815260200160038201805461040590611603565b80601f016020809104026020016040519081016040528092919081815260200182805461043190611603565b801561047e5780601f106104535761010080835404028352916020019161047e565b820191906000526020600020905b81548152906001019060200180831161046157829003601f168201915b5050505050815260200160048201548152602001600582015481526020016006820180546104ab90611603565b80601f01602080910402602001604051908101604052809291908181526020018280546104d790611603565b80156105245780601f106104f957610100808354040283529160200191610524565b820191906000526020600020905b81548152906001019060200180831161050757829003601f168201915b5050505050815260200160078201805461053d90611603565b80601f016020809104026020016040519081016040528092919081815260200182805461056990611603565b80156105b65780601f1061058b576101008083540402835291602001916105b6565b820191906000526020600020905b81548152906001019060200180831161059957829003601f168201915b5050505050815250508383815181106105d2576105d161152e565b5b602002602001018190525081806105e89061158c565b9250505b80806105f79061158c565b915050610204565b50819350505050919050565b6000818154811061061b57600080fd5b906000526020600020906008020160009150905080600001805461063e90611603565b80601f016020809104026020016040519081016040528092919081815260200182805461066a90611603565b80156106b75780601f1061068c576101008083540402835291602001916106b7565b820191906000526020600020905b81548152906001019060200180831161069a57829003601f168201915b5050505050908060010160009054906101000a900473ffffffffffffffffffffffffffffffffffffffff16908060020160009054906101000a900473ffffffffffffffffffffffffffffffffffffffff169080600301805461071890611603565b80601f016020809104026020016040519081016040528092919081815260200182805461074490611603565b80156107915780601f1061076657610100808354040283529160200191610791565b820191906000526020600020905b81548152906001019060200180831161077457829003601f168201915b5050505050908060040154908060050154908060060180546107b290611603565b80601f01602080910402602001604051908101604052809291908181526020018280546107de90611603565b801561082b5780601f106108005761010080835404028352916020019161082b565b820191906000526020600020905b81548152906001019060200180831161080e57829003601f168201915b50505050509080600701805461084090611603565b80601f016020809104026020016040519081016040528092919081815260200182805461086c90611603565b80156108b95780601f1061088e576101008083540402835291602001916108b9565b820191906000526020600020905b81548152906001019060200180831161089c57829003601f168201915b5050505050905088565b60006040518061010001604052808a81526020018973ffffffffffffffffffffffffffffffffffffffff1681526020018873ffffffffffffffffffffffffffffffffffffffff168152602001878152602001868152602001858152602001848152602001838152509080600181540180825580915050600190039060005260206000209060080201600090919091909150600082015181600001908161096991906117e0565b5060208201518160010160006101000a81548173ffffffffffffffffffffffffffffffffffffffff021916908373ffffffffffffffffffffffffffffffffffffffff16021790555060408201518160020160006101000a81548173ffffffffffffffffffffffffffffffffffffffff021916908373ffffffffffffffffffffffffffffffffffffffff1602179055506060820151816003019081610a0d91906117e0565b506080820151816004015560a0820151816005015560c0820151816006019081610a3791906117e0565b5060e0820151816007019081610a4d91906117e0565b5050507f19d55a14e0e6a8d4135478fc9068fcd5a4d426f8bee677d1bc746fd8f82dcd8f8888888888888888604051610a8d989796959493929190611239565b60405180910390a15050505050505050565b60606000805480602002602001604051908101604052809291908181526020016000905b82821015610dfe578382906000526020600020906008020160405180610100016040529081600082018054610af790611603565b80601f0160208091040260200160405190810160405280929190818152602001828054610b2390611603565b8015610b705780601f10610b4557610100808354040283529160200191610b70565b820191906000526020600020905b815481529060010190602001808311610b5357829003601f168201915b505050505081526020016001820160009054906101000a900473ffffffffffffffffffffffffffffffffffffffff1673ffffffffffffffffffffffffffffffffffffffff1673ffffffffffffffffffffffffffffffffffffffff1681526020016002820160009054906101000a900473ffffffffffffffffffffffffffffffffffffffff1673ffffffffffffffffffffffffffffffffffffffff1673ffffffffffffffffffffffffffffffffffffffff168152602001600382018054610c3590611603565b80601f0160208091040260200160405190810160405280929190818152602001828054610c6190611603565b8015610cae5780601f10610c8357610100808354040283529160200191610cae565b820191906000526020600020905b815481529060010190602001808311610c9157829003601f168201915b505050505081526020016004820154815260200160058201548152602001600682018054610cdb90611603565b80601f0160208091040260200160405190810160405280929190818152602001828054610d0790611603565b8015610d545780601f10610d2957610100808354040283529160200191610d54565b820191906000526020600020905b815481529060010190602001808311610d3757829003601f168201915b50505050508152602001600782018054610d6d90611603565b80601f0160208091040260200160405190810160405280929190818152602001828054610d9990611603565b8015610de65780601f10610dbb57610100808354040283529160200191610de6565b820191906000526020600020905b815481529060010190602001808311610dc957829003601f168201915b50505050508152505081526020019060010190610ac3565b50505050905090565b60405180610100016040528060608152602001600073ffffffffffffffffffffffffffffffffffffffff168152602001600073ffffffffffffffffffffffffffffffffffffffff16815260200160608152602001600081526020016000815260200160608152602001606081525090565b6000604051905090565b600080fd5b600080fd5b600073ffffffffffffffffffffffffffffffffffffffff82169050919050565b6000610eb782610e8c565b9050919050565b610ec781610eac565b8114610ed257600080fd5b50565b600081359050610ee481610ebe565b92915050565b600060208284031215610f0057610eff610e82565b5b6000610f0e84828501610ed5565b91505092915050565b600081519050919050565b600082825260208201905092915050565b6000819050602082019050919050565b600081519050919050565b600082825260208201905092915050565b60005b83811015610f7d578082015181840152602081019050610f62565b60008484015250505050565b6000601f19601f8301169050919050565b6000610fa582610f43565b610faf8185610f4e565b9350610fbf818560208601610f5f565b610fc881610f89565b840191505092915050565b610fdc81610eac565b82525050565b6000819050919050565b610ff581610fe2565b82525050565b60006101008301600083015184820360008601526110198282610f9a565b915050602083015161102e6020860182610fd3565b5060408301516110416040860182610fd3565b50606083015184820360608601526110598282610f9a565b915050608083015161106e6080860182610fec565b5060a083015161108160a0860182610fec565b5060c083015184820360c08601526110998282610f9a565b91505060e083015184820360e08601526110b38282610f9a565b9150508091505092915050565b60006110cc8383610ffb565b905092915050565b6000602082019050919050565b60006110ec82610f17565b6110f68185610f22565b93508360208202850161110885610f33565b8060005b85811015611144578484038952815161112585826110c0565b9450611130836110d4565b925060208a0199505060018101905061110c565b50829750879550505050505092915050565b6000602082019050818103600083015261117081846110e1565b905092915050565b61118181610fe2565b811461118c57600080fd5b50565b60008135905061119e81611178565b92915050565b6000602082840312156111ba576111b9610e82565b5b60006111c88482850161118f565b91505092915050565b600082825260208201905092915050565b60006111ed82610f43565b6111f781856111d1565b9350611207818560208601610f5f565b61121081610f89565b840191505092915050565b61122481610eac565b82525050565b61123381610fe2565b82525050565b6000610100820190508181036000830152611254818b6111e2565b9050611263602083018a61121b565b611270604083018961121b565b818103606083015261128281886111e2565b9050611291608083018761122a565b61129e60a083018661122a565b81810360c08301526112b081856111e2565b905081810360e08301526112c481846111e2565b90509998505050505050505050565b600080fd5b600080fd5b7f4e487b7100000000000000000000000000000000000000000000000000000000600052604160045260246000fd5b61131582610f89565b810181811067ffffffffffffffff82111715611334576113336112dd565b5b80604052505050565b6000611347610e78565b9050611353828261130c565b919050565b600067ffffffffffffffff821115611373576113726112dd565b5b61137c82610f89565b9050602081019050919050565b82818337600083830152505050565b60006113ab6113a684611358565b61133d565b9050828152602081018484840111156113c7576113c66112d8565b5b6113d2848285611389565b509392505050565b600082601f8301126113ef576113ee6112d3565b5b81356113ff848260208601611398565b91505092915050565b600080600080600080600080610100898b03121561142957611428610e82565b5b600089013567ffffffffffffffff81111561144757611446610e87565b5b6114538b828c016113da565b98505060206114648b828c01610ed5565b97505060406114758b828c01610ed5565b965050606089013567ffffffffffffffff81111561149657611495610e87565b5b6114a28b828c016113da565b95505060806114b38b828c0161118f565b94505060a06114c48b828c0161118f565b93505060c089013567ffffffffffffffff8111156114e5576114e4610e87565b5b6114f18b828c016113da565b92505060e089013567ffffffffffffffff81111561151257611511610e87565b5b61151e8b828c016113da565b9150509295985092959890939650565b7f4e487b7100000000000000000000000000000000000000000000000000000000600052603260045260246000fd5b7f4e487b7100000000000000000000000000000000000000000000000000000000600052601160045260246000fd5b600061159782610fe2565b91507fffffffffffffffffffffffffffffffffffffffffffffffffffffffffffffffff82036115c9576115c861155d565b5b600182019050919050565b7f4e487b7100000000000000000000000000000000000000000000000000000000600052602260045260246000fd5b6000600282049050600182168061161b57607f821691505b60208210810361162e5761162d6115d4565b5b50919050565b60008190508160005260206000209050919050565b60006020601f8301049050919050565b600082821b905092915050565b6000600883026116967fffffffffffffffffffffffffffffffffffffffffffffffffffffffffffffffff82611659565b6116a08683611659565b95508019841693508086168417925050509392505050565b6000819050919050565b60006116dd6116d86116d384610fe2565b6116b8565b610fe2565b9050919050565b6000819050919050565b6116f7836116c2565b61170b611703826116e4565b848454611666565b825550505050565b600090565b611720611713565b61172b8184846116ee565b505050565b5b8181101561174f57611744600082611718565b600181019050611731565b5050565b601f8211156117945761176581611634565b61176e84611649565b8101602085101561177d578190505b61179161178985611649565b830182611730565b50505b505050565b600082821c905092915050565b60006117b760001984600802611799565b1980831691505092915050565b60006117d083836117a6565b9150826002028217905092915050565b6117e982610f43565b67ffffffffffffffff811115611802576118016112dd565b5b61180c8254611603565b611817828285611753565b600060209050601f83116001811461184a5760008415611838578287015190505b61184285826117c4565b8655506118aa565b601f19841661185886611634565b60005b828110156118805784890151825560018201915060208501945060208101905061185b565b8683101561189d5784890151611899601f8916826117a6565b8355505b6001600288020188555050505b50505050505056fea264697066735822122002eb7749327eba423c856990e54e0558c6c7f07522f7e60ace8ddf6772e0a70864736f6c63430008140033",
  "linkReferences": {},
  "deployedLinkReferences": {}
}